S01400005761686164656C6B6F4764612E7372656374
S113000009C1000019C1000017C1000015C100009A
S113001013C1000011C100000FC100000DC1000098
S11300200BC1000009C1000007C1000005C10000A8
S113003003C1000001C10000FFC00000FDC00000BA
S1130040FBC00000F9C00000F7C00000F5C00000CC
S1130050D1C20000F1C00000EFC00000EDC00000FC
S1130060EBC00000E9C00000E7C00000E5C00000EC
S1130070E3C00000E1C00000DFC00000DDC00000FC
S1130080DBC00000D9C00000D7C00000D5C000000C
S1130090D3C00000D1C00000CFC00000CDC000001C
S11300A0CBC00000C9C00000C7C00000C5C000002C
S11300B0C3C00000C1C00000BFC00000BDC000003C
S11300C0BBC00000F4C200001CC3000044C3000015
S11300D06DC30000B1C00000AFC00000ADC000009F
S11300E0ABC00000A9C00000A7C00000A5C000006C
S11300F0A3C00000A1C000009FC000009DC000007C
S113010049C200005FC2000097C0000095C0000013
S113011093C0000091C000008FC000008DC000009B
S11301208BC0000089C0000087C0000085C00000AB
S113013083C0000081C000007FC000007DC00000BB
S11301407BC0000079C0000077C0000075C00000CB
S113015073C0000071C000006FC000006DC00000DB
S11301606BC0000069C0000067C0000065C00000EB
S113017063C0000061C000005FC000005DC00000FB
S11301805BC0000059C0000057C0000055C000000B
S113019053C0000051C000004FC000004DC000001B
S11301A04BC0000049C0000047C0000045C000002B
S11301B043C0000041C000003FC000003DC000003B
S11301C03BC0000039C0000037C0000035C000004B
S11301D033C0000031C000002FC000002DC000005B
S11301E02BC0000029C00000547574616A00547566
S11301F074616A004B524B3D004B72616E2070007B
S11302004B524B3D004B72616E206C004400530016
S11302104100430011241FBECFEFCDBFDFE3DEBF9B
S113022000E00CBF20E2A0E0B0E201C01D92AA30C1
S1130230B207E1F745D4EFC6E3CE83E08093B00084
S11302408BE180931006E0E8F1E080E580838FE0A5
S11302508087E0E0F8E088E0808388E6838308957F
S113026082E080935000E0E5F0E0818181FFFDCFE2
S113027088ED84BF81E0809340000895E0E8F6E0D3
S113028080E282838AE1858B38D1CCD3F0D3D5CF79
S1130290089503D480E0D9D38CED95E0E2D3E0E671
S11302A0F6E088E1808B818BCCD3E0E6F6E08085B4
S11302B080FFFDCFF2D384E690E051D181E0C5D335
S11302C081E042D1BED350D1853F9140E0F3E5D3E4
S11302D080916C06882319F081E080936C068091EC
S11302E06C06882319F082E080936C06089580FFE1
S11302F004C090E19093450603C090E190934606B4
S113030081FF04C090E29093450603C090E290936D
S1130310460682FF04C090E49093450603C090E42F
S11303209093460683FF04C080E8809345060895B1
S113033080E88093460608950F931F93CF93DF932D
S1130340082FC0E4D6E018E01D8382958F70CFDFBC
S11303501E8300001D83802FCADF1E838FE891E077
S11303600197F1F700C00000DF91CF911F910F9129
S1130370089594E090934606DFCF089594E0909317
S11303804506DACF0895CF93DF93EC012196FC0163
S11303908491882331F0F2DFFE018491219681114A
S11303A0FACFDF91CF91089590E4699F800D1124D5
S11303B08068DFCF089581E0DCDF8FE79EE301975B
S11303C0F1F700C000000895FF920F931F93CF939D
S11303D0DF93E0E4F6E08CEF81838FE39CE90197FF
S11303E0F1F700C000008CE08683C3E000E416E06F
S11303F0D8E0FD2EF801F58283E079DFF801D68399
S11304008FE39CE90197F1F700C00000C15091F718
S1130410C0E4D6E018E01D8382E069DF1E83EFE3C9
S1130420FFE13197F1F700C0000088E2A2DF88E025
S1130430A0DF81E09EDF8FE79EE30197F1F700C024
S1130440000086E096DF8CE094DFDF91CF911F916E
S11304500F91FF9008958F929F92AF92BF92EF9267
S1130460FF921F93CF93DF93CDB7DEB72A97CDBF0B
S1130470DEBF611571058105910519F480E37EDF06
S11304802FC010E00F2EFAE08F2E912CA12CB12C4E
S1130490F02DEE24E394F12CEC0EFD1EE10EF11C84
S11304A017FDFA94A501940185D5F7016083622FA5
S11304B0732F842F952F1F5F611571058105910599
S11304C041F711506AF0E1E0F0E0EC0FFD1FE10F9D
S11304D0F11D17FDFA958081805D50DF11509AF768
S11304E02A96CDBFDEBFDF91CF911F91FF90EF9091
S11304F0BF90AF909F908F9008958AE18093940667
S113050084E780938101E0E0FAE080EF818385E570
S1130510878384EF91E080A791A788E090E282A787
S113052093A782E894E184A795A788E59BE186A731
S113053097A7A0EAB0E012968C9112978160129668
S11305408C9389E080830895813019F48093080A9C
S11305500895811103C081E08093090A089580936E
S1130560200A9093210A08958091200A9091210AEB
S11305700895E0E6F6E089E1808B91E09287818B33
S113058082E083878FE08187E0EAF0E08281846003
S1130590828308951F920F920FB60F9211247DD279
S11305A00ADF85E092E0EFDE61E080E0FDDE80E0DE
S11305B092E0E9DE6091200A7091210A80E090E0E7
S11305C04ADFFFCF1F920F920FB60F92112465D20C
S11305D0F2DE89EF91E0D7DE61E080E0E5DE84EFD2
S11305E091E0D1DE6091200A7091210A80E090E0D0
S11305F032DFFFCF1F920F920FB60F9211240BB66A
S11306000F922F933F934F935F936F937F938F93A7
S11306109F93AF93BF93CF93DF93EF93FF93809117
S113062008208130B1F48091680A9091690AEDD173
S1130630803E9E4250F4C0E4DAE088A599A5E5D155
S11306400A96CBD188AF99AF1DC0109208201FD253
S113065019C0809108208F3FA9F48091680A909175
S1130660690AD3D1893E934050F0C0E4DAE088A50A
S113067099A5CBD14497B1D188AF99AF03C010925B
S1130680082005D2FF91EF91DF91CF91BF91AF91F7
S11306909F918F917F916F915F914F913F912F9196
S11306A00F900BBE0F900FBE0F901F9018951F92C6
S11306B00F920FB60F9211240BB60F922F933F9304
S11306C04F935F936F937F938F939F93AF93BF9356
S11306D0EF93FF9370DE8EEE91E055DEFF91EF9184
S11306E0BF91AF919F918F917F916F915F914F9146
S11306F03F912F910F900BBE0F900FBE0F901F9044
S113070018951F920F920FB60F9211240BB60F92E9
S11307102F933F934F935F936F937F938F939F9305
S1130720AF93BF93EF93FF9346DE88EE91E02BDE09
S1130730FF91EF91BF91AF919F918F917F916F91B5
S11307405F914F913F912F910F900BBE0F900FBE71
S11307500F901F9018951F920F920FB60F921124AD
S11307600BB60F922F933F934F935F936F937F93A7
S11307708F939F93AF93BF93EF93FF938FEF8093E8
S1130780082081D118DEFF91EF91BF91AF919F9125
S11307908F917F916F915F914F913F912F910F9026
S11307A00BBE0F900FBE0F901F9018951F920F92C3
S11307B00FB60F9211240BB60F922F933F934F93C2
S11307C05F936F937F938F939F93AF93BF93EF93B5
S11307D0FF9363D181E080930920FF91EF91BF9152
S11307E0AF919F918F917F916F915F914F913F91C5
S11307F02F910F900BBE0F900FBE0F901F90189566
S11308001F93CF93DF93EC01162FAEDE8C0F9D1F49
S1130810E0E0FAE086A797A786A597A543E852E00B
S113082014039001159F300D1124821B930B84A790
S113083095A7DF91CF911F910895CF92DF92EF9208
S1130840FF920F931F93CF93DF936C01C62F8CDE1F
S11308500C2E000CDD0BCC9DA001CD9D500DDC9D1C
S1130860500D1124840F951F00E01AE0F80186A7AB
S113087097A7E6A4F7A49601AEEFB8EDBDD32AEF8F
S11308803AE842E050E096D3C29FC001C39F900D66
S1130890D29F900D1124E81AF90AF801E4A6F5A6EE
S11308A0DF91CF911F910F91FF90EF90DF90CF9048
S11308B008950F931F93CF93DF93EC0155DE11E05E
S11308C08C179D0708F010E0113011F00FEF01C0F4
S11308D001E04ADE9E01281B390B822F932F1AF464
S11308E03195219531092A3847E0340738F00AC098
S11308F0812FABD0812F28DED7D007C0602FC9014C
S11309009CDFF6CF602F7CDFF3CFDF91CF911F9177
S11309100F9108954F925F926F927F928F929F9260
S1130920AF92BF92CF92DF92EF92FF9260EB74E0AE
S1130930681B790B80E090E04CD26B017C01209124
S11309400420309105204091062050910720B1D118
S11309504B015C0160930420709305208093062072
S11309609093072020910020309101204091022093
S113097050910320C701B6019BD19B01AC0199D1D1
S11309802B013C01C0920020D0920120E092022071
S1130990F0920320A7019601C701B6018AD16B0129
S11309A07C0120E030E040E450E4C501B4019FD272
S11309B09B01AC01C701B6017CD1A301920179D19D
S11309C0FF90EF90DF90CF90BF90AF909F908F906B
S11309D07F906F905F904F900895813E2BEA92072D
S11309E070F48A3F910570F09C0140E050E060E0B3
S11309F074E284EF90E0DED2C901019708958AE69B
S1130A0091E008958FEF9FEF089501969C01220FC6
S1130A10331F40E050E060E078E488EE91E0CAD211
S1130A20C9010895E0E8F6E080E18183A0E4BAE03A
S1130A3081E111968C93119781E08C9382E08183FC
S1130A40089581E08093400A0895813021F482E082
S1130A50809385060895811103C082E08093860601
S1130A600895BBDF8093780A9093790A0895E0E4AF
S1130A70F8E011828AE590E086A397A310A211A260
S1130A8081E08683089585E0809340080895E0E43A
S1130A90F8E0108210A211A20895E0E4FAE01082B6
S1130AA010A211A2F4CF089588EE93E0DADF81E07A
S1130AB08093082095E0909340088093400A08951D
S1130AC0CFDBDCDB81DC82E192E05DDC63E872E0B9
S1130AD080E090E0C0DC60E089E066DC80E192E0E8
S1130AE052DC6EEF78ED80E090E0B5DC61E080E010
S1130AF05BDC8EE092E047DC6AE877E080E090E03F
S1130B00AADC61E089E050DC8CE092E03CDC6CEF34
S1130B1071EB81E090E09FDC60E087E045DC2FEF43
S1130B2083EC99E0215080409040E1F700C0000040
S1130B30EFEFF3EC29E0E150F0402040E1F700C092
S1130B4000008FEF93ECE9E081509040E040E1F742
S1130B5000C00000FFEF23EC89E0F150204080400A
S1130B60E1F700C000009FEFE3ECF9E09150E040B2
S1130B70F040E1F700C000002FEF83EC99E0215032
S1130B8080409040E1F700C00000EFEFF3EC29E073
S1130B90E150F0402040E1F700C000008FEF93ECFB
S1130BA0E9E081509040E040E1F700C00000FFEF31
S1130BB023EC89E0F15020408040E1F700C00000C0
S1130BC09FEFE3ECF9E09150E040F040E1F700C022
S1130BD000002FEF83EC99E0215080409040E1F732
S1130BE000C00000EFEFF3EC29E0E150F0402040BA
S1130BF0E1F700C000008FEF93ECE9E081509040F2
S1130C00E040E1F700C00000FFEF23EC89E0F15081
S1130C1020408040E1F700C000009FEFE3ECF9E0E2
S1130C209150E040F040E1F700C000002FEF83EC6A
S1130C3099E0215080409040E1F700C00000EFEFC0
S1130C40F3EC29E0E150F0402040E1F700C000005F
S1130C5020DB8FDC78941092092080EA9FE029DE63
S1130C60C0E0D8E000E816E0A6DB68A179A180E046
S1130C7090E0F1DB809109208823E1F310920920B0
S1130C8073DC5C0188A199A145DE6B017C01B5018F
S1130C9080E090E09ED0A70196010AD06ED0CB01EF
S1130CA008DEF801808585FDDFCF18A219A2DCCF0C
S1130CB05058BB27AA270ED0E0C0D1D030F0D6D0F0
S1130CC020F031F49F3F11F41EF4C6C00EF4E095F9
S1130CD0E7FBBCC0E92FE2D080F3BA1762077307C1
S1130CE08407950718F071F49EF5FAC00EF4E095A8
S1130CF00B2EBA2FA02D0B01B90190010C01CA01D2
S1130D00A0011124FF27591B99F0593F50F4503E7C
S1130D1068F11A16F040A22F232F342F4427585F6E
S1130D20F3CF469537952795A795F0405395C9F786
S1130D307EF41F16BA0B620B730B840BBAF091503E
S1130D40A1F0FF0FBB1F661F771F881FC2F70EC0DD
S1130D50BA0F621F731F841F48F4879577956795B0
S1130D60B795F7959E3F08F0B3CF9395880F08F099
S1130D709927EE0F97958795089598D088F09F57F7
S1130D8090F0B92F9927B751A0F0D1F0660F771FD3
S1130D90881F991F1AF0BA95C9F712C0B13081F0B3
S1130DA09FD0B1E008959CC0672F782F8827B85F43
S1130DB039F0B93FCCF3869577956795B395D9F714
S1130DC03EF490958095709561957F4F8F4F9F4F1E
S1130DD00895E89409C097FB3EF49095809570952A
S1130DE061957F4F8F4F9F4F9923A9F0F92F96E973
S1130DF0BB279395F695879577956795B795F111E8
S1130E00F8CFFAF4BB0F11F460FF1BC06F5F7F4F84
S1130E108F4F9F4F16C0882311F096E911C0772396
S1130E2021F09EE8872F762F05C0662371F096E89F
S1130E30862F70E060E02AF09A95660F771F881F6E
S1130E40DAF7880F9695879597F9089597F99F672C
S1130E5080E870E060E008959FEF80EC089500243E
S1130E600A941616170618060906089500240A940B
S1130E7012161306140605060895092E0394000C91
S1130E8011F4882352F0BB0F40F4BF2B11F460FF20
S1130E9004C06F5F7F4F8F4F9F4F089557FD905849
S1130EA0440F551F59F05F3F71F04795880F97FB2A
S1130EB0991F61F09F3F79F08795089512161306E4
S1130EC01406551FF2CF4695F1DF08C01616170613
S1130ED01806991FF1CF8695710561050894089548
S1130EE0E894BB2766277727CB0197F908950BD0A1
S1130EF0C4CFB5DF28F0BADF18F0952309F0A6CFE8
S1130F00ABCF1124EECFCADFA0F3959FD1F3950F99
S1130F1050E0551F629FF001729FBB27F00DB11D79
S1130F20639FAA27F00DB11DAA1F649F6627B00D09
S1130F30A11D661F829F2227B00DA11D621F739FF2
S1130F40B00DA11D621F839FA00D611D221F749F00
S1130F503327A00D611D231F849F600D211D822F47
S1130F60762F6A2F11249F5750408AF0E1F088238E
S1130F704AF0EE0FFF1FBB1F661F771F881F91509B
S1130F805040A9F79E3F510570F060CFAACF5F3F54
S1130F90ECF3983EDCF3869577956795B795F795CE
S1130FA0E7959F5FC1F7FE2B880F911D9695879556
S1130FB097F90895A1E21A2EAA1BBB1BFD010DC0CF
S1130FC0AA1FBB1FEE1FFF1FA217B307E407F507F5
S1130FD020F0A21BB30BE40BF50B661F771F881FD1
S1130FE0991F1A9469F760957095809590959B0167
S1130FF0AC01BD01CF010895A29FB001B39FC00110
S1131000A39F700D811D1124911DB29F700D811D30
S10D10101124911D0895F894FFCFF8
S9030000FC
